:020000040800F2
:1000000040210020250300081F330008DF300008CE
:100010001D3300082B1600086F3E0008000000008A
:100020000000000000000000000000004502000881
:100030002D16000800000000A1020008D1340008BD
:100040003F0300083F0300083F0300083F03000888
:100050003F0300083F0300083F0300083F03000878
:100060003F0300083F0300083F0300083F03000868
:100070003F0300083F0300083F0300083F03000858
:100080003F0300083F0300083F0300083F03000848
:100090003F0300083F0300083F0300083F03000838
:1000A0003F0300083F0300083F03000875350008C0
:1000B0009936000800000000000000003F0300081F
:1000C0003F03000800000000000000003F0300089C
:1000D000000000003F0300083F030008000000008C
:1000E0003F0300083F03000800000000000000007C
:1000F0000000000000000000000000000000000000
:100100000000000000000000000000003F030008A5
:100110000000000000000000A53600083F030008B2
:100120003F0300083F0300083F0300083F030008A7
:100130003F03000800000000000000000000000075
:100140003F0300083F0300083F0300083F03000887
:100150003F0300083F0300083F0300083F03000877
:100160003F0300083F0300083F03000800000000B1
:100170003F0300083F0300080000000000000000EB
:100180003F0300083F0300083F03000800F002F8A7
:1001900000F049F80AA090E8000C82448344AAF1D8
:1001A0000107DA4501D100F03EF8AFF2090EBAE8D6
:1001B0000F0013F0010F18BFFB1A43F0010318479B
:1001C000BC610000DC610000103A24BF78C878C12F
:1001D000FAD8520724BF30C830C144BF04680C604D
:1001E000704700000023002400250026103A28BF95
:1001F00078C1FBD8520728BF30C148BF0B60704799
:10020000662905F0D587002070471FB505F0CBFFA4
:1002100000F0CEFC04000020002105F037FFE06074
:100220001FBD10B510BD00F0C3FD1146FFF7EDFF77
:1002300003F020FF00F0E1FD03B4FFF7F2FF03BC81
:1002400000F024FE2C4B1968086800F05AB880F3BF
:100250000988BFF36F8F4FF0000080F3118870475B
:100260000000000008480068006880F308884FF02C
:10027000000080F3148862B661B6BFF34F8FBFF3FE
:100280006F8F00DF00BF00BF08ED00E0DFF80C005B
:10029000016841F470010160704700BF88ED00E023
:1002A000EFF30980BFF36F8F134B1A681EF0100F26
:1002B00008BF20ED108A20E9F04F106009B44FF01C
:1002C000500080F31188BFF34F8FBFF36F8F04F09E
:1002D000B9FF4FF0000080F3118809BC1968086865
:1002E00000F014B81EF0100F08BF00F014B880F32F
:1002F0000988BFF36F8F70474C000020EFF3058033
:10030000704730C8B0E8C04FFFF7A1BF30C8B0E8B1
:10031000C04FFFF7E7BFB0EC088AB0EC08CAFFF7A0
:10032000E6BF00000948804709480047FEE7FEE7AE
:10033000FEE7FEE7FEE7FEE7FEE7FEE7FEE7FEE795
:1003400004480549054A064B70470000653500081A
:100350008D010008401B002040210020401D00208E
:10036000401D002053EA020C00F069802DE9F04B9B
:100370004FF00006002B1FBFB3FA83F503FA05F414
:1003800024FA05F65E4012BF1643B2FA82F502FA6D
:1003900005F4C5F120051EBF22FA05FC44EA0C0451
:1003A000203556EA044C4FEA144418BF641C4FF041
:1003B00000084FF00009904271EB030C39D300297B
:1003C00019BFB1FA81F701FA07F6B0FA80F700FA1F
:1003D00007F6C7F120071EBF20FA07FC46EA0C0605
:1003E0002037B6FBF4FCA7EB0507103F07F01F0B07
:1003F000CBF120060CFA0BFB2CFA06F644BFB346F1
:100400000026202FA4BF5E464FF0000B5BEA060CCF
:1004100008BF4FF0010B19EB0B09ABFB027C48EB5B
:100420000608C01B06FB02CC0BFB03CC71EB0C01D6
:10043000C1E70B46024641464846BDE8F08B13B57E
:100440004FF000004FF00001AFF30080BDE81C400A
:10045000704700000FB41CB5074B06AA7B446946E1
:100460000090059800F059FB0020694600F068FBF9
:100470001CBC5DF814FB0000E10600002DE9F05FF4
:10048000894604464FF0000ADFF824B1FB44C0F867
:1004900020A02046E168884700287DD0252806D086
:1004A000D4E901219047206A401C2062F1E7002531
:1004B0005F462046E16888472028064607DB312E44
:1004C00005D2B81910F8200C08B10543F1E7A807C8
:1004D00001D525F00405C4F81CA00027C4F818A015
:1004E0002A2E09D0304603F0EBFC38B304EB870822
:1004F000303EC8F8186019E059F8041B204604EB98
:1005000087029161E1688847012F064618D1E069AA
:10051000002820DA25F020051DE0D8F8180000EBAF
:10052000800006EB40003038C8F818002046E1682B
:100530008847064603F0C4FC0028EED1012F0AD0FC
:100540002E2E08D12046E16888477F1C0646022FE0
:1005500045F02005C4DBA069002803DA404245F0DD
:100560000105A061E80701D025F01005A6B1A6F1AC
:100570004100192802D8203645F400654A46314624
:10058000204625604D46FFF73BFE60B1012807D0AD
:10059000ED1D25F0070000E007E000F1080978E70D
:1005A00005F1040975E730467AE7206A00F002B8E1
:1005B000005E000030BCBDE8C09F032A40F23080DE
:1005C00010F0030C00F0158011F8013BBCF1020F94
:1005D000624498BF11F801CB00F8013B38BF11F815
:1005E000013BA2F1040298BF00F801CB38BF00F82C
:1005F000013B11F0030300F0A882083AC0F0088024
:1006000051F8043B083A51F804CBA0E80810F5E78C
:10061000121D5CBF51F8043B40F8043BAFF300806F
:10062000D20724BF11F8013B11F801CB48BF11F8E4
:10063000012B24BF00F8013B00F801CB48BF00F8B4
:10064000012B704702F0FF0343EA032242EA024211
:1006500000F002B84FF000020429C0F0128010F040
:10066000030C00F01B80CCF1040CBCF1020F18BF8E
:1006700000F8012BA8BF20F8022BA1EB0C0100F021
:100680000DB85FEAC17C24BF00F8012B00F8012BF4
:1006900048BF00F8012B70474FF0000200B5134629
:1006A00094469646203922BFA0E80C50A0E80C5092
:1006B000B1F12001BFF4F7AF090728BFA0E80C5043
:1006C00048BF0CC05DF804EB890028BF40F8042B3C
:1006D00008BF704748BF20F8022B11F0804F18BFA9
:1006E00000F8012B704770477047704770472DE93D
:1006F000FF4F0C461E464FF0FF378BB0D2E900018A
:10070000DDF860800A908A46C1F30A5505B93D4676
:10071000002108464FF00000BAF1000F00F440003D
:1007200005DA00EB80004FF4400101EA50004FEA87
:100730009059B9F1010F00DDB9460A9850EA4A0014
:100740000ED044F61050A5F2FF3545432F14B8F1F2
:10075000000F1ED07542291E1EDDC9F100021CE0EB
:10076000B8F1010F4FF0000001D0302103E0F24357
:1007700005E02154401CB042FBDB30460022002142
:1007800021540B99C1F80880C1E900200FB000F096
:10079000BCB9BD1B6D1CDEE74A4600DA694206A8FB
:1007A00000F090FA06AB93E8070003AB83E807007C
:1007B00050460A9900F071FB8DE80700A0F5005043
:1007C0001F3800900398002D0ADD42F21F014A46AF
:1007D0000844002303A90390684600F0DAFD09E00D
:1007E000A0F500504A461F38002303A9039068462D
:1007F00000F0E4FD8DE807000004000C03D04FF08A
:10080000FF30410800E01046B8F1000F03D000228D
:10081000009215461EE0751E05D400F0CDF9303269
:1008200062556D1EF9D5B3460122084302D000225D
:100830007F1C04E02078302801D100227F1E002A8E
:10084000099784D01DE0112D07DA00F0B5F9303298
:1008500062556D1C50EA0102F5D1084302D00098A0
:10086000C8B10EE00021681E05E0235C625C6354A1
:100870002254401E491C8142F7DBAB46A81B401E98
:100880000990002004F80B000B98099AC0F8088022
:10089000C0E9002B7AE711264FF0000857E72DE951
:1008A000F04F88460446D21D22F0070191B0D1E9ED
:1008B0000001CDE90A0103F0DBFA02460B98C00FF4
:1008C00001D02D2007E02068810701D52B2002E010
:1008D000202101EAC000032A099001D0072A05DB84
:1008E00003464146204600F0ADF90BE12078800632
:1008F00001D5E06900E00620B8F1650F814606D019
:10090000B8F1660F18D0B8F1670F70D131E0002050
:10091000B9F1110F009001DB112301E009F101038E
:100920000AAA01A90CA8FFF7E2FEDDE90C70002677
:1009300009F10105834647E001204B4600904FF046
:1009400000470AAA01A90CA8FFF7D1FEDDE90DB006
:100950000C995D46002610B909F101000D18B9EB9C
:10096000050003D4C0F1FF3609F10105A5EB09002C
:100970002BE0B9F1010F01DA4FF001090020B9F1C4
:10098000110F0090484601DD112300E003460AAA3A
:1009900001A90CA8FFF7ABFEDDE90C704D4600265F
:1009A0008346207800070AD4AB4500DA5D4601A8EB
:1009B000012D04DD411911F8011C302907D04F45E4
:1009C00002DA17F1040F04DA012082460FE06D1EEF
:1009D000EEE7002F02DCED1B3E4403E0781CA8424A
:1009E00000DD7D1CB81B00F1010A4FF000472078A4
:1009F000000703D4AA4501DB4FF0FF3A0021B7F10D
:100A0000004F0DF143088DF8431024D002202B2312
:100A1000002F01DA7F422D230A21021EA0F10100DE
:100A200000DC5FB197FBF1FC97FBF1F201FB1C7C52
:100A300017460CF1300C08F801CDEEE7A8F10100E3
:100A400003702188090501D5452100E06521A0F149
:100A5000010800F8011C09980FA9A1EB0807FF1D68
:100A600000B10120411901EBEA70A1693844081A6C
:100A7000401EA0612078C00602D42046AFF300805B
:100A8000099828B1D4E901219047206A401C2062CE
:100A90002078C00622D52046AFF300801EE0002E4D
:100AA00004DBB34502DD01A8805D00E03020D4E91D
:100AB00001219047206A401C2062761CAAF10100A7
:100AC0005FEA000A0AD100F073F8C0680168405C70
:100AD000D4E901219047206A401C2062281EA5F11C
:100AE0000105DCDC07E0D4E9012118F8010B90478F
:100AF000206A401C2062381EA7F10107F3DC204663
:100B0000AFF30080032011B041E630BCBDE8C08FD8
:100B100001694A1C02610878704700B58FB0CDE9C1
:100B200001310021059105497944CDE903101146B1
:100B30006846FFF7A3FC0FB000BD0000E5FFFFFF14
:100B40000A6802F8010B0A60704710B5203AC0F03D
:100B50000B80B1E81850203AA0E81850B1E81850BE
:100B6000A0E81850BFF4F5AF5FEA027C24BFB1E8FB
:100B70001850A0E8185044BF18C918C0BDE810406C
:100B80005FEA827C24BF51F8043B40F8043B08BF75
:100B90007047D20728BF31F8023B48BF11F8012B3C
:100BA00028BF20F8023B48BF00F8012B7047000027
:100BB00000487047001B002030B5B0F10A024FEA30
:100BC000900E71F100034EEA817EB0EB0E0061EBF6
:100BD00091014FEA101E4EEA017E10EB0E0041EB30
:100BE00011114FEA102E4EEA016E10EB0E0041EB90
:100BF00011214FEA104E4EEA014E10EB0E0041EB70
:100C00001141401841F100014FEAD00040EA417023
:100C10004FEAD10110EB80054FEA810444EA907459
:100C200044EB01046D1944EB0404521BA3414FF043
:100C3000000348BF0A3200D530BD401C41F100011D
:100C400030BD00002DE9F0411F460446032601682F
:100C5000072A01F4006004DB08B116A505E016A51B
:100C600003E008B115A500E015A521F010002060F3
:100C7000A069C01EA0610FB1401EA0612046AFF365
:100C800000804FB1D4E9012138469047206A401CCA
:100C90002062C01C206206E0206AFAE7D4E9012144
:100CA00015F8010B9047761EF8D22046AFF300806E
:100CB000BDE8F0814E414E006E616E00494E460027
:100CC000696E66002DE9F047814616468AB03548C0
:100CD00078440DC88DE80D0032487844801C03AC80
:100CE0000DC884E80D0041F69B300844372190FB85
:100CF000F1F290FBF1F5A5F1800501FB12041B3C1C
:100D000002D56442012000E00020DFF898A0804670
:100D10000027FA44AAF1BE0A0EE0E0070AD03246E4
:100D2000684607EB470101230AEB810100F046FB0F
:100D30008DE8070064107F1C002CEED1194F7F4412
:100D4000AE3F19E0E80715D007EB04100DF1180AC3
:100D500090E80E008AE80E00C068F04201D19819B0
:100D600008903246012306A903A800F027FB03AB35
:100D700083E807006D10641C002DE3D14FF00103E0
:100D800032466946B8F1000F03A802D000F001FB1B
:100D900001E000F013FBC9E90001C9F808200AB01E
:100DA000BDE8F0874C56000000487047E01A00206C
:100DB0007546FFF7F9FFAE4605006946534620F039
:100DC0000700854618B020B5FFF7BAFABDE8204005
:100DD0004FF000064FF000074FF000084FF0000BF7
:100DE00021F00701AC46ACE8C009ACE8C009ACE8AA
:100DF000C009ACE8C0098D46704710B50446AFF392
:100E000000802046BDE81040FFF716BA4FF0013CC5
:100E100050F8042B51F8043B9A4221D1A2EB0C0369
:100E2000934313EACC1317D150F8042B51F8043B29
:100E30009A4215D1A2EB0C03934313EACC130BD1C6
:100E400050F8042B51F8043B9A4209D1A2EB0C0351
:100E5000934313EACC13DBD04FF00000704700BF80
:100E6000D01A01BAB1FA81F101F0180122FA01F0A9
:100E7000CB40C1F12001DBB2C0B2C01A2CFA01F3A1
:100E8000D11A914311EAC311E6D1704701491820E4
:100E9000ABBEFEE72600020070475FEA400C08BFC9
:100EA00091F0000F4FEA8C234FEAC12243EA5151DF
:100EB0004FEA1C5018BF00F5F0404FEA300018BF51
:100EC00041F000415FEA6C5C00F02980BCF1FF3F1B
:100ED00008BF40F080407047130C06BF12044FF06B
:100EE000100C4FF0000C130E04BF12020CF1080C92
:100EF000130F04BF12010CF1040C930F04BF9200F6
:100F00000CF1020CD30F04BF52000CF1010C11467E
:100F10004FF00002A0F11F00A0EB0C00704711F091
:100F2000004F08BF704731F000413FF4D5AF0B0CC4
:100F300006BF09044FF0100C4FF0000C0B0E04BF5D
:100F400009020CF1080C0B0F04BF09010CF1040C91
:100F50008B0F04BF89000CF1020CCB0F04BF4900BA
:100F60000CF1010CCCF12003A0EB0C0022FA03F3EE
:100F700002FA0CF241EA030100F10100704720F08F
:100F80007F4C80EA030023F07F47ACEB070303F5B7
:100F90007C5300F0004003F1FF032DE980494FEA44
:100FA000154B09B44FEA144325EA0B4E24EA0348D3
:100FB0000FF2042606EB132749083E785FEA320257
:100FC00003FB0667C7F5000707FB06F64FEA543731
:100FD0004FEAD64606F1020607FB066CCCF1005C30
:100FE0004FEA1C472CEA074C07FB06F40CFB06F5FE
:100FF00004EB15464FEA961634BF00204FF0004030
:101000004FEAD13706FB07FC4FEA1C4C0CFB0BF7F1
:10101000D21B03FB0CF761EB07010CFB0EF7B0EBE7
:10102000074072EB17420CFB08F734BFA2EB0742F4
:10103000B2EB074261EB17414FEA0C444FEA9107CC
:1010400006FB07FC4FEA1C4C0CFB0BF7B0EBC74050
:1010500072EB573203FB0CF734BFA2EBC742B2EB83
:10106000C74261EB57310CFB0EF7B0EBC70072EBD8
:1010700057720CFB08F734BFA2EBC702B2EBC702F2
:1010800061EB5771039F4FEA816141EA921104EBD2
:10109000CC044FEAD1374FEA826206FB07FC42EAF2
:1010A00090124FEA80604FEA1C4C0CFB0BF7D21BEE
:1010B00003FB0CF761EB07010CFB0EF7B0EB0740ED
:1010C00072EB17420CFB08F734BFA2EB0742B2EBFE
:1010D000074261EB17414FEA8C554FEA910704EB49
:1010E0009C2406FB07FC4FEA1C4C0CFB0BF7B0EBF7
:1010F000C74072EB573203FB0CF734BFA2EBC74279
:10110000B2EBC74261EB57310CFB0EF7B0EBC700F7
:1011100072EB57720CFB08F734BFA2EBC702B2EBBD
:10112000C70261EB577115EB4C254FEA816141EA2B
:1011300092114FEA82624FEAD13742EA901206FBDF
:1011400007FC44F100044FEA80604FEA1C4C0CFBA2
:101150000BF7D21B03FB0CF761EB07010CFB0EF73F
:10116000B0EB074072EB17420CFB08F734BFA2EB61
:101170000742B2EB074261EB174115EB1C154FEA32
:10118000813141EA92414FEA823242EA90424FEA8B
:1011900080304FEA0C7644F1000448EA03434EEAFB
:1011A0000B484FF0000EB2EB080C71EB030724BFA5
:1011B000624639464EEB0E0E4FF0000B00185241BE
:1011C00049414BEB0B0BB2EB080C71EB03077BF1C6
:1011D000000B24BF624639464EEB0E0E4FF0000B5B
:1011E0000018524149414BEB0B0BB2EB080C71EB71
:1011F00003077BF1000B24BF624639464EEB0E0E0F
:1012000051EA020718BF46F0010616EB0E7655F1BB
:10121000000254F1000103D5BDE88901BDE8008852
:10122000BDE88901BDE80048B619524141EB010112
:10123000A3F10103704780807F7E7D7C7B7A797883
:10124000777676757473727171706F6E6E6D6C6C8B
:101250006B6A6A696868676666656464636362612D
:101260006160605F5F5E5E5D5D5C5C5B5B5A5A59AE
:10127000595858575756565555555454535352521A
:101280005251515050504F4F4F4E4E4D4D4D4C4C72
:101290004C4B4B4B4A4A4A494949484848474747BB
:1012A00047464646454545444444444343434342F8
:1012B000424242414141002B9C4630D477002BD022
:1012C0001CB54FEA370703B44FF010004FF0100180
:1012D000BAF1000F06D0BCF1000FDCBF40F00800EF
:1012E00040F008014FF000000FBCBDE810400BF1CA
:1012F000010BBBF1010F08BF5FEA170722BF12F114
:10130000010211F101014FF0004143F1000300F02F
:10131000004043EA00007047F9D35708D0E746EA97
:10132000064613F1400F4FEA16461FDD13F1200F5A
:10133000DFBF16430A46002120335B42BED0C3F113
:10134000200746EA064602FA07F74FEA164646EA3B
:101350000706C3F1200722FA03F201FA07F721FA80
:1013600003F14FF0000342EA0702A7E746EA02064C
:1013700046EA06464FEA164646EA0106BCBF46EA7A
:101380000646360C4FF000034FF000024FF000010C
:1013900094E72DE9804C9A46934670B491E8380062
:1013A00007C831EA400C48BF34EA430C03D5FFF7C5
:1013B000E6FDFFF780FFF0BCBDE8008C2DE9804C16
:1013C0009A46934670B491E8380007C810F0804FF1
:1013D00008BF13F0804F03D100F005F8FFF76BFF53
:1013E000F0BCBDE8008C20F07F4780EA030023F0CA
:1013F0007F4C07EB0C03A3F57C5300F00040A3F1F6
:10140000FE0392F0000F00F0B38095F0000F00F0A3
:1014100077802DE901494FEA11404FEA144621EA4D
:10142000004800FB06FC24EA064708FB06F607FB1B
:1014300008F800FB07F718EB06484CEB164C4FEA90
:10144000124B18EB07484FEA15464CEB174022EABF
:101450000B4E0BFB06FC25EA06470EFB06F607FBC8
:101460000EFE0BFB07F71EEB064E4CEB164C4FF037
:1014700000061EEB074E4CEB174B18EB0B0840F128
:10148000000018EB0E0B58EB000840F100008F1A1B
:101490004FF000013CBFC943661B14BFB5EB040C01
:1014A00000213CBFC943F61B4FEA17444EEA8E0E9B
:1014B00027EA04454FEA1C4704FB07622CEA074C65
:1014C00005FB07F70CFB05F604FB0CFC16EB0746C7
:1014D00042EB174216EB0C4642EB1C421BEB060696
:1014E00058EB0202414146EA9E0601D5BDE801895A
:1014F000B619524141EB0101A3F10103BDE8018995
:101500004FEA14454FEA114724EA054621EA074C01
:1015100005FB07F406FB07F70CFB06F105FB0CFCCB
:1015200011EB074144EB17444FEA124711EB0C4112
:1015300044EB1C4422EA074C05FB07F206FB07F7C5
:101540000CFB06F605FB0CFC16EB074642EB1742BC
:1015500016EB0C4642EB1C456A1854F1000148BFDB
:101560007047B619524141EB0101A3F101037047E5
:1015700095F0000F37D04FEA11424FEA144721EAA5
:10158000024624EA074C02FB07F106FB07F70CFBB7
:1015900006F402FB0CFC14EB074441EB17414FEA45
:1015A000154714EB0C4441EB1C4125EA074C02FBA8
:1015B00007F506FB07F70CFB06F602FB0CFC16EB27
:1015C000074645EB174516EB0C4645EB1C42121936
:1015D00051F1000148BF7047B619524141EB01017A
:1015E000A3F1010370474FEA14454FEA114724EA7B
:1015F000054621EA074C05FB07F106FB07F70CFB44
:1016000006F24FF0000605FB0CFC12EB074241EB23
:10161000174112EB0C4251EB1C4148BF7047921826
:1016200041EB0101A3F101037047FEE7704772B679
:10163000FEE7000070B5044600F014F90546601C92
:1016400002D004480078044400F00CF9401BA0428A
:10165000FAD370BD3C0000202DE9F04FDFF8E09197
:10166000002301270326A9F1040B85B00F2509F1FA
:10167000040AABF1040EDBE007FA03FC12EA0C02E9
:101680007ED00C7904F00304012C01D0022C20D16F
:10169000846800945C0006FA04F80494009C24EA30
:1016A00008040094D1F80C80049C08FA04F8009C0B
:1016B00048EA0408C0F80880446824EA0C0491F859
:1016C00004C0CCF3001C0CFA03FC4CEA040CC0F878
:1016D00004C00C79E443A4070DD0D0F80CC04FEA45
:1016E000430806FA08F42CEA040C8C6804FA08F49F
:1016F00044EA0C04C4600C7904F00304022C19D1F0
:10170000DC0800EB84040294246A4FEA437C4FEA2D
:10171000DC6CCDF810C005FA0CFC24EA0C04D1F8FE
:101720001080DDF810C008FA0CF848EA0408029CA2
:10173000C4F8208004684FEA430806FA08FC24EA4B
:101740000C0491F804C00CF0030C0CFA08FC4CEAF1
:10175000040CC0F800C04C6814F4403F67D0394C0A
:10176000D4F860C04CF0010CC4F860C0246E23F0C3
:10177000030C04F001040094334C6444029400E030
:1017800055E0A4684FEA837C4FEA1C7805FA08FC10
:1017900024EA0C04B0F1904F06D0DFF8B0C06045E9
:1017A00005D14FF0010C0BE04FF0000C08E0DFF822
:1017B000A0C0604502D14FF0020C01E04FF0070CD1
:1017C0000CFA08FC4CEA040C029CC4F808C0D9F8D6
:1017D0000040CC46D1F8048094435FEAC82800D585
:1017E0001443CCF80040DAF80040D446D1F8048025
:1017F00094435FEA882800D51443CCF80040DBF816
:101800000040DC46D1F8048094435FEA883800D574
:101810001443CCF80040DEF80040F446D1F80480D0
:1018200094435FEAC83800D51443CCF800405B1CF1
:101830000C682246DC407FF41FAF05B000F00AB808
:10184000080401400010024000000140000400486C
:101850000008004830BCBDE8C08F0AB18161704704
:101860008162704701488068704700003C0000209A
:101870000248816802781144816070473C00002072
:1018800010B50024032000F08DF80F2000F008F8B8
:1018900008B1012401E000F03DF8204610BD000031
:1018A00000B5014687B00022362000F05BF83620F4
:1018B00000F04AF81348816D41F010018165806D98
:1018C00005A900F010000690684600F09FFA00F0AD
:1018D000BDFA0D490D4AB0FBF1F10D48491E0260F9
:1018E000416040F2E7320021C0E90321816000F04D
:1018F00055FE10B1012007B000BD054800F0C4FE40
:10190000F9E700000010024040420F0000100040C4
:10191000080200200B4882B0016E41F0010101660F
:10192000016E01F001010091816D41F080518165EE
:10193000806D002200F0805000900F21901E02B0B8
:1019400000F010B800100240002809DB00F01F0270
:10195000012191404009800000F1E020C0F8001111
:1019600070470000F0B40E4B1B680C46C3F3022313
:10197000C3F10705042D00D90425191D072901D23B
:10198000002300E0DB1E012606FA05F1491E214076
:1019900099409E40761E16403143F0BC02F080BA5A
:1019A0000CED00E0064900F0070208684FF6FF035F
:1019B000184040EA0220034A1043086070470000C4
:1019C0000CED00E00000FA051649B0F5007F08684C
:1019D000C0F3412009D0022805D0086820F4C06077
:1019E00040F480600860002070470128FBD0086840
:1019F00020F4C06040F4007008600B483222006898
:101A000050430A4AB0FBF2F0401C00E0401E4A6915
:101A1000520501D50028F9D148694005E3D50320D6
:101A200070470000007000404800002040420F0056
:101A30000248006800F4C060704700000070004079
:101A40000248016841F480710160704700700040F5
:101A50000248016841F00401016070470010024033
:101A60002DE9F84F0446002700889C4D3E460005AE
:101A700015D5E06B60B1B0F5000F04D0B0F5400FA4
:101A80002BD001270AE0E86840F48030E86024E0C9
:101A90000021201D01F044FC07001ED03E462068B6
:101AA000800338D5A86D4FF00008C00009D4A86D98
:101AB00040F08050A865A86D4FF0010800F08050FC
:101AC0000090DFF81CA2DAF8001041F48071CAF827
:101AD0000010FFF7C7FE814610E0D5F88800E16BE3
:101AE00020F440000843C5F88800D8E7FFF7BAFEA5
:101AF000A0EB0900022801D9032704E0DAF800006E
:101B0000C005F3D5EFB33E46B8F1000F03D0A86D82
:101B100020F08050A8652078C00707D0D5F888004D
:101B2000216A20F003000843C5F888002078800768
:101B300007D5D5F88800616A20F00C000843C5F885
:101B400088002078800607D5D5F88800A16A20F49F
:101B500040600843C5F888002088800507D5D5F87F
:101B60008800616B20F440200843C5F88800208875
:101B7000400509D5D5F88800A16B20F44010084332
:101B800000E02EE0C5F888002078400607D5D5F89B
:101B90008800E16A20F440500843C5F88800208896
:101BA000C00507D5D5F88800216B20F440300843E4
:101BB000C5F8880020884FF0006780044FF08068E7
:101BC0004ED5D5F88800216C20F040600843C5F858
:101BD0008800206CB8423BD1E86840F48010E8608F
:101BE0003EE0D5F8900010F4407014D0216D814291
:101BF00011D0D5F89000D5F8901020F4407041F441
:101C00008031C5F89010D5F8901021F48031C5F8D6
:101C10009010C5F89000C00711D0FFF723FE0746CB
:101C200041F2883907E000BFFFF71CFEC11B4945A0
:101C300001D9032668E7D5F890008007F4D5D5F8D8
:101C40009000216D20F440700843C5F890005BE7D8
:101C5000404505D10121201D01F062FB00B106467F
:101C60002068400317D5D5F88800616C20F04060EB
:101C70000843C5F88800606CB84204D1E86840F4B5
:101C80008010E86007E0404505D10121201D01F0EA
:101C900047FB00B106462088400411D5D5F88800DE
:101CA000A16C20F040500843C5F88800A06CB0F14A
:101CB000805F05D10221201D01F032FB00B10646F4
:101CC0002088000406D555F8880FE16C20F080408C
:101CD00008432860304600F005B8000000100240BC
:101CE0000070004018BCBDE8E08F00002DE9F0470F
:101CF0000F46050058D0404E306800F00700B8424B
:101D000009D2306820F0070038433060306800F0B6
:101D10000700B84248D12878384CC0072CD06868F2
:101D2000032811D0022812D0216898B14905002952
:101D30003ADAA16821F003010143A160FFF792FDA7
:101D4000804641F2883910E021688901EFE7216877
:101D50008903ECE78907EAE7FFF784FDA0EB0801B8
:101D6000494502D90320BDE8F087A068696800F002
:101D70000C00B0EB810FEFD12878800705D5A06863
:101D8000A96820F0F0000843A060306800F0070068
:101D9000B8420BD9306820F0070038433060306813
:101DA00000F00700B84201D00120DCE728784007A6
:101DB00005D5A068E96820F4E0600843A0602878B1
:101DC000000706D5A068296920F4605040EAC100E8
:101DD000A06000F05FF8A168094AC1F30311515CEB
:101DE00001F01F01C8400749086007480068BDE8C6
:101DF000F047FFF755BD00000020024000100240F0
:101E00004862000848000020400000200F220260C5
:101E10000C4A936803F003034360936803F0F003F4
:101E20008360936803F4E063C36092684FF4E063F7
:101E300003EAD20202610448006800F0070008606B
:101E4000704700000010024000200240054806498B
:101E500000688968054AC1F30221515C01F01F0145
:101E6000C840704748000020001002408862000807
:101E70000548064900688968054AC1F3C221515CDA
:101E800001F01F01C84070474800002000100240C8
:101E90008862000870B52549002318468A68CC6816
:101EA00012F00C0204F00306214C4FEA640509D03D
:101EB0000C2A05D0042A32D0082A00D1284670BD49
:101EC000012E10D10B681B0704D4D1F89430C3F352
:101ED000032302E00B68C3F30313164E56F82330B6
:101EE000DAB10C2AEBD1C86800F00300022818D040
:101EF000032818D01846CA68CB68C2F30212C3F38D
:101F000006234343521CB3FBF2F2C868C0F341609E
:101F1000401C4000B2FBF0F070BD184670BD20467A
:101F200070BD2046E7E72846E5E7000000100240C4
:101F30000024F400586200082DE9F84304006FD033
:101F4000FE4DA86800F00C06E86800F00307207852
:101F5000C00664D576B10C2E01D1012F0AD0A0693C
:101F6000002828687AD040F001002860FFF77AFC4A
:101F700080465DE02868800702D5A0690028DED091
:101F8000216A2868000703D5286800F0F00004E003
:101F9000D5F89400F02202EA1010814216D90846C2
:101FA00001F054FA00283BD1286840F0080028606E
:101FB0002868216A20F0F000084328606868E16919
:101FC00020F47F4040EA0120686016E0286840F075
:101FD000080028602868216A20F0F0000843286083
:101FE0006868E16920F47F4040EA0120686026B912
:101FF000206A01F02BFA0028D5D1FFF74BFFA96822
:10200000CF4AC1F30311515C01F01F01C840CD4913
:102010000860CD480068FFF743FC00287ED12EE021
:10202000CAE000BFFFF71EFCA0EB0800022876D82C
:1020300028688007F6D5286840F0080028602868DE
:10204000216A20F0F000084328606868E16920F404
:102050007F4040EA0120686011E0FFE720F00100C6
:102060002860FFF7FFFB804606E000BFFFF7FAFBA2
:10207000A0EB08000228DAD828688007F6D4207878
:10208000C00740D0082E18D00C2E01D1032F14D039
:102090006068B0F5803F17D0B0F5A02F286817D042
:1020A00020F480302860286820F480202860606850
:1020B000E0B1FFF7D7FB804614E02868800322D503
:1020C0006068002878D01EE0286840F48030EDE792
:1020D00040F480202860F7E7FFF7C4FBA0EB08007E
:1020E0006428A4D828688003F6D50CE0FFF7BAFB73
:1020F000804605E0FFF7B6FBA0EB0800642896D801
:1021000028688003F6D4207880073BD5042E11D0B0
:102110000C2E01D1022F0DD0E06801E0B6E1FFE006
:10212000002828681ED040F480702860FFF79AFBD2
:1021300007460CE0286840050CD5E0680028C1D0AF
:1021400008E000BFFFF78EFBC01B022893D8286869
:102150004005F7D56868217C20F0F85040EA01601E
:1021600068600FE020F480702860FFF77BFB074673
:1021700005E000BFFFF776FBC01B0228B1D8286836
:102180004005F7D42078000729D560690028D5F8E4
:10219000940012D040F00100C5F89400FFF762FBF4
:1021A000074604E0FFF75EFBC01B022899D8D5F86C
:1021B00094008007F6D512E02BE120F00100C5F86D
:1021C0009400FFF74FFB074605E000BFFFF74AFB0F
:1021D000C01B022885D8D5F894008007F6D4207853
:1021E000400766D5A86D0027C00008D4A86D40F050
:1021F0008050A865A86D012700F0805000905348DA
:102200000168C90512D40168814641F480710160FA
:10221000FFF728FB804605E0FFF724FBA0EB080052
:1022200002287DD8D9F80000C005F5D5A06801289E
:1022300016D00528D5F8900017D020F00100C5F879
:102240009000D5F8900020F0040000BFC5F8900081
:10225000A06841F28839C0B1FFF704FB80460FE067
:10226000D5F8900040F00100F0E740F00400C5F818
:102270009000F5E7FFF7F6FAA0EB080149454FD8C3
:10228000D5F890008007F5D50EE0FFF7EBFA804611
:1022900006E000BFFFF7E6FAA0EB080149453FD88A
:1022A000D5F890008007F5D41FB1A86D20F08050BC
:1022B000A8652078800628D5606A0028D5F898009F
:1022C00012D040F00100C5F89800FFF7CBFA07469E
:1022D00005E000BFFFF7C6FAC01B022820D8D5F8DA
:1022E00098008007F6D510E020F00100C5F89800AE
:1022F000FFF7B8FA074604E0FFF7B4FAC01B02285C
:102300000ED8D5F898008007F6D4A06AA8B10228A4
:1023100024D00C2E7DD0286820F08070286000E04A
:10232000B3E02868000103D4E86820F00300E86007
:10233000E86807490840E8600CE09FE000100240B0
:102340004862000848000020400000200070004063
:10235000FFFFEEFEFFF786FA044699E0E868E26ABE
:1023600000F00301914226D1216B00F070020901B7
:10237000103991421FD1626B00F4FE41B1EB022F84
:1023800019D194F8382000F07841B1EBC26F12D126
:10239000A18F00F4C00249084905A1F5001191423E
:1023A00009D194F8401000F0C06049084906A1F135
:1023B000007181424BD00C2E6FD0286840016CD444
:1023C000286820F080702860FFF74CFA064604E089
:1023D000FFF748FA801B022857D828688001F7D4F5
:1023E000F4E90B016FF00F0202EB01110843218A9F
:1023F0005204490802EB4151A26841EA0221084314
:10240000217D4FF07E42490802EB41610843217B68
:1024100000E042E040EAC160E968214A1140084317
:10242000E860286840F080702860E86840F08070BC
:10243000E860FFF717FA044605E000BFFFF712FA5D
:10244000001B022821D828688001F7D523E02868DE
:10245000800120D4286840F080702860E86840F04F
:102460008070E860FFF7FEF9044604E0FFF7FAF930
:10247000001B022809D828688001F7D50BE000BFAF
:10248000FFF7F0F9001B022802D90320BDE8F8830A
:1024900028688001F4D40020F8E70120F6E7000066
:1024A0008C809D01704770477047000030B590F8F0
:1024B0003C20012A37D0012280F83C20CA688C6871
:1024C00022F4407222434C6822F4806222430C685A
:1024D00022F4006222430C6922F4805222434C69A8
:1024E00022F4005222438C6A22F4804222430C8B55
:1024F00022F4702242EA04420C4D04680023AC42EC
:102500000CD18D8C22F4700242EA0552CD6922F082
:1025100080722A43096A22F000720A43626480F8DA
:102520003C30002030BD022030BD0000002C0140B6
:10253000F0B590F83C20012A29D0012480F83C40D5
:10254000022280F83D2003685A689D68114EB3420C
:1025500003D122F470074A683A4322F070070A68F0
:102560003A435A600268B24205D0B2F1804F02D0BD
:10257000094B9A4204D1896825F080031943916080
:1025800080F83D40002180F83C100846F0BD022054
:10259000F0BD0000002C01400040014010B50400D7
:1025A00003D094F83D0010B107E0012010BD0020D9
:1025B00084F83C00204600F023F8022084F83D0017
:1025C000211D206801F074F8012084F8480084F887
:1025D0003E0084F83F0084F8400084F8410084F80D
:1025E000420084F8430084F8440084F8450084F8ED
:1025F000460084F8470084F83D00002010BD00002C
:1026000008B50068B0F1804F12D10A48816D41F0E1
:1026100001018165806D002200F00100009005211C
:102620001C20FFF79FF9BDE808401C20FFF78CB97C
:1026300008BD00000010024090F83D10012901D0B3
:1026400001207047022180F83D1000680B49884244
:1026500005D0B0F1804F02D00949884207D1816886
:10266000084A1140062906D0B1F5803F03D0016821
:1026700041F001010160002070470000002C014082
:10268000004001400700010090F83D10012901D0F1
:1026900001207047022180F83D100168CA6842F0AD
:1026A0000102CA6000680B49884205D0B0F1804F32
:1026B00002D00949884207D18168084A1140062999
:1026C00006D0B1F5803F03D0016841F001010160FF
:1026D00000207047002C014000400140070001002D
:1026E00070B5044690F83C000025012817D001265B
:1026F00084F83C60022084F83D00226890682F4BEB
:10270000184020F47F4090600868502838D00DDCD5
:1027100020284FD005DC90B3102811D14AE00220C8
:1027200070BD302846D040280AD13BE060282FD029
:1027300070280DD0B0F5805F03D0B0F5005F12D0E7
:10274000012584F83D60002084F83C00284670BDD7
:10275000CB68D1E90121206800F0EDFF2068816895
:1027600041F0770109E0CB68D1E90121206800F050
:10277000E2FF2068816841F480418160E1E719E06F
:10278000CA684968206801F027F95021206806E0EE
:10279000CA684968206801F059F96021206800F092
:1027A000D4FFCEE7CA684968206801F015F94021D6
:1027B0002068F4E7226801461046F0E788FFFEFF34
:1027C00070472DE9F041054690F83C0000260C4684
:1027D000012810D0012085F83C0072B1042A1CD0D9
:1027E000082A2CD00C2A50D00126002085F83C0065
:1027F0003046BDE8F0810220FBE7D4E90012E3682F
:10280000286801F0FBF82868816921F00C018161DA
:1028100028688169A26811430FE0D4E90012E368D7
:10282000286801F025F92868816921F440618161F7
:1028300028688169A26841EA02218161D5E7286898
:10284000D4E9002C277B016A21F480710162C169FF
:10285000036A21F0030141EA0C0121F0F00C390771
:102860004FF420674CEA116123F4206307EA022247
:102870001A43C16102622868C16921F00C01C1617B
:102880002868C169A268114328E02868D4E90027B4
:10289000E168036A23F480530362D0F81CC0036A22
:1028A0002CF4407C4CEA07274FF6FF7C27F4704756
:1028B0000CEA013139434FF4204723F4204307EA5F
:1028C00002321A43C16102622868C16921F4406181
:1028D000C1612868C169A26841EA0221C16184E737
:1028E00010B5040003D094F83D0010B107E00120BA
:1028F00010BD002084F83C00204600F023F80220A0
:1029000084F83D00211D206800F0D2FE012084F8EB
:10291000480084F83E0084F83F0084F8400084F8C2
:10292000410084F8420084F8430084F8440084F8AD
:10293000450084F8460084F8470084F83D000020F4
:1029400010BD000010B586B0044614216846FDF79E
:10295000A3FE17492068884227D11648016E41F42A
:1029600000610166016E01F400610591C16C41F0E6
:102970000101C164C06C694600F0010005904FF48C
:1029800080700090022001900020029003900120AE
:1029900004904FF09040FEF75FFE002205211B20BF
:1029A000FEF7E0FF1B20FEF7CFFF06B010BD0000D2
:1029B000002C01400010024030B50446002571B1E2
:1029C000042911D0082914D00C2917D0102918D0A7
:1029D00094F8430094F84720012817D114E094F8A4
:1029E0003E0094F84420F7E794F83F0094F845201F
:1029F000F2E794F8400094F84620EDE794F841009F
:102A0000E8E794F84200E5E7012A01D0012030BD53
:102A1000022079B1042916D008291DD00C2940D0F4
:102A2000102941D084F8430084F847000C293ED097
:102A3000012534E084F83E0084F844002068C26830
:102A400042F0020210E084F83F0084F8450020685C
:102A5000C26842F0040207E084F8400084F84600AF
:102A60002068C26842F00802C2600122206800F0BB
:102A700055FE11492068884205D0B0F1804F02D040
:102A80000E49884207D181680D4A1140062906D0B7
:102A9000B1F5803F03D0016841F001010160284693
:102AA00030BD84F84100BFE784F84200BCE72068ED
:102AB000C26842F01002D7E7002C014000400140FC
:102AC0000700010070B50446006801694FF0000579
:102AD000C943890715D4C168C943890711D4E91EC0
:102AE000016101202077206880698007204602D09C
:102AF000FFF766FE04E000F0CDF8204600F08FF905
:102B0000257720680169C943490717D4C168C943BB
:102B1000490713D46FF00401016102202077206877
:102B2000806910F4407F204602D0FFF749FE04E0A0
:102B300000F0B0F8204600F072F9257720680169AE
:102B4000C943090716D4C168C943090712D46FF0F5
:102B500008010161042020772068C06980072046B1
:102B600002D0FFF72DFE04E000F094F8204600F0BC
:102B700056F9257720680169C943C90617D4C16889
:102B8000C943C90613D46FF01001016108202077F2
:102B90002068C06910F4407F204602D0FFF710FE85
:102BA00004E000F077F8204600F039F92577206836
:102BB0000169C943C90708D1C168C943C90704D11C
:102BC000891E0161204600F093F920680169C9431C
:102BD000090609D4C168C943090605D46FF080010C
:102BE00001612046FFF75FFC20680169C943C90500
:102BF00009D4C168C943090605D46FF48071016125
:102C00002046FFF74FFC20680169C943490609D4F3
:102C1000C168C943490605D46FF0400101612046EF
:102C200000F085F920680169C94389060BD4C168A1
:102C3000C943890607D46FF0200101612046BDE831
:102C40007040FFF731BC70BD10B586B0044614214A
:102C50006846FDF721FD2068B0F1804F16D10C4881
:102C6000C16C41F00101C164C06C694600F0010013
:102C700005902020009002200190002002900390F7
:102C8000012004904FF09040FEF7E6FC06B010BD26
:102C900000100240704770B5044690F83C000026D2
:102CA0000D4601280BD0012084F83C000C2A4AD0A4
:102CB00007DC82B1042A20D0082A06D131E00220A4
:102CC00070BD102A53D0142A63D00126002084F846
:102CD0003C00304670BD206800F040FD20688169EE
:102CE00041F0080181612068816921F0040181615E
:102CF000206881692A69114311E0206800F06AFDAB
:102D00002068816941F4006181612068816921F452
:102D100080618161206881692A6941EA02218161BB
:102D2000D4E7206800F092FD2068C16941F00801F5
:102D3000C1612068C16921F00401C1612068C169D5
:102D40002A69114311E0206800F0BAFD2068C169CA
:102D500041F40061C1612068C16921F48061C161F1
:102D60002068C1692A6941EA0221C161AEE7206891
:102D700000F0D6FD2068416D41F0080141652068F2
:102D8000416D21F0040141652068416D2A691143BC
:102D900011E0206800F0F2FD2068416D41F400610F
:102DA00041652068416D21F4806141652068416D75
:102DB0002A6941EA0221416588E710B5040003D081
:102DC00094F83D0010B107E0012010BD002084F808
:102DD0003C00204600F022F8022084F83D00211D2E
:102DE000206800F065FC012084F8480084F83E006B
:102DF00084F83F0084F8400084F8410084F84200E1
:102E000084F8430084F8440084F8450084F84600C0
:102E100084F8470084F83D00002010BD70477047DB
:102E200010B50446022269B1042912D0082917D02E
:102E30000C291CD0102921D094F84300012824D05B
:102E4000012010BD94F83E000128F9D184F83E20FD
:102E50001DE094F83F000128F2D184F83F2016E0ED
:102E600094F840000128EBD184F840200FE094F85A
:102E700041000128E4D184F8412008E094F84200A0
:102E80000128DDD184F8422001E084F843200122AA
:102E9000206800F043FC12492068124A884204D09E
:102EA000904202D0104B984203D1436C43F400434C
:102EB00043642068884204D0B0F1804F01D0904232
:102EC00007D18168094A1140062906D0B1F5803F33
:102ED00003D0016841F001010160002010BD000035
:102EE000002C014000400140004401400700010067
:102EF00000680349884201D1FEF7BABC7047000060
:102F0000001000400246002041B1042909D00829E0
:102F10000AD00C2901D11068006C70471068406B12
:102F200070471068806B70471068C06B70477047BF
:102F300010B5040002D0A06F10B107E0012010BD51
:102F4000002084F87400204600F026F82420A067B2
:102F50002068016821F001010160204600F036FE82
:102F60000128ECD0606A10B1204600F09CFD20687A
:102F7000416821F4904141602068816821F02A0174
:102F800081602068016841F0010101602046BDE8D0
:102F9000104000F0ECBD0000F0B59BB004461421D9
:102FA00015A8FDF779FB54216846FDF775FB1C4910
:102FB0002068884232D1022400266846099600948F
:102FC000FEF74EFD08B1FEF732FB1648816D41F465
:102FD00000318165816D01F400311A91C16C41F0BD
:102FE0000101C164C06C15A900F001001A90042011
:102FF00081E8510003250720CDE918504FF0904794
:103000003846FEF729FBCDE917654FF400401995C6
:10301000CDE9150415A93846FEF71EFB1BB0F0BD1F
:1030200000440040001002402DE9F8430446806F40
:103030001F4616460D4620284FD1CDB1C6B194F893
:103040007400012849D0012084F874004FF0000872
:10305000C4F880802120A067FEF704FCA4F850602B
:103060008146A4F85260A068B0F5805F03D004E008
:103070000120BDE8F883206928B12E465FF00005E5
:1030800084F8748010E00026FAE78021204600F0E2
:103090008BFEB8B9C6B116F8010B21680885B4F8E3
:1030A0005200401EA4F85200B4F852004B464FF0B4
:1030B000000200970028E8D14FF04001204600F0C0
:1030C00073FE30B10320D4E735F8020BC0F30800DB
:1030D000E3E72020A0670020CBE70220C9E7FEE756
:1030E000F0B587B014216846FDF7D6FA1E48C16CCA
:1030F00041F00401C164C16C01F004010591C16C8F
:1031000041F00101C164C16C01F001010591C16C84
:1031100041F00201C164C06C4FF4006400F0020091
:103120004FF090460590002221463046FEF795FB71
:103130000E4F002208213846FEF78FFB0125CDE90E
:10314000004500240294694630460394FEF784FA51
:1031500008200090CDE90154694638460394FEF7F3
:103160007BFA07B0F0BD00000010024000040048E8
:1031700010B59AB0002417941894169412941394CE
:1031800014941C210BA81594FDF786FA2C2168468F
:10319000FDF782FA2B482A4901600721C0E9011492
:1031A0004FF6FF71C0E9031444618461FFF798FB97
:1031B00008B172B6FEE72348FFF7FFFD08B172B60B
:1031C000FEE71694179416A91E481894FFF7B0F955
:1031D00008B172B6FEE70120CDE912401494002236
:1031E00012A918481594FFF7ECFA08B172B6FEE779
:1031F0006020CDE90B040D940E940F9410940422DA
:103200000BA910481194FFF746FD08B172B6FEE70E
:1032100000944FF40050CDE90440019402940394CB
:1032200000030694CDE907400994694605480A94CD
:10323000FFF73CF9002801D072B6FEE71AB010BDC6
:10324000002C0140CC00002010B58EB00024079463
:10325000089409940A940B940C941C2168460D94CC
:10326000FDF71AFA1E484FF0804101604F21C0E976
:1032700001144FF6FF71C0E9031480218161FFF74B
:103280008DF908B172B6FEE74FF48050079007A998
:103290001348FFF725FA08B172B6FEE71048FFF7AA
:1032A0008CFD08B172B6FEE70B940BA90C480D9487
:1032B000FFF73EF908B172B6FEE76020CDE90004E1
:1032C00002940022694606480494FFF7E4FC08B122
:1032D00072B6FEE70248FFF7B7FC0EB010BD000063
:1032E000180100200C4810B50A4901604FF416512E
:1032F0004160002181600C22C160C0E9041281613B
:10330000C16101624162FFF713FE002801D072B66D
:10331000FEE710BD0044004064010020FEE7FEE728
:103320002DE9F041444C05468846E06800268107B7
:1033300028680DD0E16801F00301814216D1A8B1DF
:10334000E0686968C0F30210401C88420ED120E09A
:10335000012804D0022805D0032807D108E02168FD
:10336000890701E021684905002907DB01265FE0A4
:103370002168890302D421684903F5E7E1686A6896
:103380006FF00F0321F0730103EB021211430143AD
:10339000E160206820F080602060FEF763FA074655
:1033A00005E000BFFEF75EFAC01B022837D8206890
:1033B0000001F7D4B8F1000F18D0B8F1010F1DD0FB
:1033C000287D4FF07E41400801EB4060A96840EA4B
:1033D00001202169194A114008432061206840F00A
:1033E00080602060FEF73EFA07461AE0A868297B55
:1033F000000240EAC1602169114AECE7288A1149BC
:10340000400801EB4050A96840EA012021690E4ABA
:10341000E1E700BFFEF726FAC01B022801D9032608
:1034200006E020680001F5D52069A96908432061FC
:103430003046BDE8F081000000100240FF80FFF937
:10344000FF80FF070000E0FFFF809FFFF8B51C4DE5
:1034500006460024A86DC00002D5FEF7E9FA0DE08B
:10346000A86D40F08050A865A86D00F080500090D5
:10347000FEF7DEFAA96D21F08051A965B0F5007F55
:1034800004D0802E07D94FF003040AE0802E08D91B
:10349000A02E01D804E001D1022402E0702E00D158
:1034A00001240848016821F00701214301600068F8
:1034B00000F00700A04201D00120F8BD0020F8BDB7
:1034C0000010024000200240012000F01BFEFBE73C
:1034D00010B54FF0E020006902F0E6FB012803D0B0
:1034E000BDE8104001F05ABF10BD000010B596B005
:1034F00044216846FDF7D0F8142111A8FDF7CCF857
:103500004FF40070FEF760FA08B172B6FEE7FEF7FE
:1035100097FA134850F8901F21F018010160142009
:103520000090012000240290CDE90604702008904C
:103530000A946846FEF700FD08B172B6FEE70F2058
:10354000CDE9110413941494002111A81594FEF7E9
:10355000CDFB08B172B6FEE7FEF77AFA16B010BDE1
:10356000001002400248016841F470010160704798
:1035700088ED00E02DE9F041364D374E374C287884
:103580003178374F88424FF0000120460ED1FFF7C7
:10359000B9FC38602068016A21F00A0101622068E4
:1035A000016A01622F48007828704EE0FFF7AAFCFC
:1035B0002D49086021680A6A22F00A020A6221681D
:1035C0000A6A42F002020A62317829703968081AE0
:1035D0003A21B0FBF1F000EE100A2448B8EE400AA0
:1035E00080ED000A10EE100AA0F18040B0F1727F69
:1035F0002BD810EE100A02F065FD41EC100B1CA157
:1036000053EC102B2048FCF725FF5020EFF31184DA
:1036100080F31188BFF34F8FBFF36F8F1E231822E3
:1036200019491A48FFF700FD84F311881848002350
:103630001A460E49006800F0FFFD1648006800F0C9
:10364000A9FE18211048FDF705F8BDE8F041034830
:10365000FFF738BA0200002001000020CC00002053
:10366000300000200000002034000020380000203E
:1036700044697374616E636520436F766572656437
:103680002025302E31660900E80100206401002069
:1036900024000020280000200148FFF713BA000092
:1036A000180100200148FFF70DBA000008020020B1
:1036B00070B50268164B4FF08046984201D0B04278
:1036C00003D122F070044A682243124C124D9842F2
:1036D00005D0B04203D0A04201D0A84203D122F4C9
:1036E0004076CA6832434E6922F08002324302605B
:1036F0008A68C2620A688262984203D0A04201D0FE
:10370000A84201D1096901630121416170BD000036
:10371000002C0140004001400044014010B501F080
:103720001F030121046A99408C430462016A9A4094
:103730001143016210BD10B5846842EA032224F4EB
:103740007F440A432243826010BD826822F07002E7
:103750000A4342F00701816070470000F0B5026A39
:1037600022F001020262056A43688269154C25F065
:10377000020522400C6822F0030214438A68134EAB
:103780002A43114D124FA84203D0B04201D0B84293
:1037900006D122F0080CCA6842EA0C0222F00402A8
:1037A000A84203D0B04201D0B84205D14D6923F4FC
:1037B00040731D438B692B434360846149684163B7
:1037C0000262F0BD8FFFFEFF002C0140004001406F
:1037D0000044014030B5026A22F010020262046A1D
:1037E00042688369154D2B400D6823F4407343EA0A
:1037F000052524F020038C6843EA0413104CA042F2
:1038000007D1CC6823F0800343EA041323F040037C
:1038100005E00C4CA04202D00B4CA04207D14C69F1
:1038200022F4406242EA84028C6942EA84024260E5
:10383000856149688163036230BD0000FF8FFFFE30
:10384000002C0140004001400044014030B5026AB4
:1038500022F480720262046A4268C369144D2B40EC
:103860000D6823F003031D4324F400738C6843EABE
:103870000423104CA04207D1CC6823F4006343EA30
:10388000042323F4806305E00B4CA04202D00B4CD0
:10389000A04207D14C6922F4405242EA04128C69DA
:1038A00042EA04124260C5614968C163036230BDE7
:1038B0008FFFFEFF002C014000400140004401400A
:1038C00030B5026A22F480520262046A4268C36917
:1038D0000F4D24F400542B400D6823F4407343EA49
:1038E00005238D6844EA05340A4DA84205D00A4DE7
:1038F000A84202D0094DA84204D14D6922F4804269
:1039000042EA85124260C36149680164046230BDC5
:10391000FF8FFFFE002C01400040014000440140A9
:1039200030B5026A22F480320262046A4268436D52
:103930000E4D2B400D681D4324F400330C8943EADF
:1039400004430B4CA04205D00A4CA04202D00A4CC2
:10395000A04204D14C6922F4803242EA042242603F
:10396000456549688165036230BD00008FFFFEFF39
:10397000002C0140004001400044014030B5026A83
:1039800022F480120262046A4268436D0E4D24F4F0
:1039900000142B400D6843EA05230D8944EA0554C1
:1039A0000A4DA84205D00A4DA84202D0094DA842AE
:1039B00004D14D6922F4802242EA852242604365A7
:1039C0004968C165046230BDFF8FFFFE002C0140D5
:1039D000004001400044014010B5036A046A24F02D
:1039E00001040462846924F0F00444EA021423F020
:1039F0000A020A438461026210BD000070B5046AC5
:103A000024F0010404628469056A0E4EB04205D0B8
:103A1000B0F1804F02D00C4EB04203D124F0030429
:103A2000144301E044F001041A0724F0F00444EACE
:103A3000126225F00A0301F00A0119438261016252
:103A400070BD0000002C01400040014010B5036A29
:103A500023F0100303628369046A23F4704343EA8A
:103A6000023224F0A00343EA01118261016210BD19
:103A700030B5046A24F0100404628469056A24F4F1
:103A8000407444EA022222F470444FF6FF7202EAC4
:103A900003322243A02425F0A00304EA01111943B4
:103AA0008261016230BD90F82410C90706D0016818
:103AB0004A68836A22F400321A434A6090F824105C
:103AC000890706D501684A68C36A22F480321A431E
:103AD0004A6090F82410490706D501684A68036BCC
:103AE00022F480221A434A6090F82410090706D570
:103AF00001684A68436B22F400421A434A6090F816
:103B00002410C90606D501688A68836B22F48052A6
:103B10001A438A6090F82410890606D501688A68DD
:103B2000C36B22F400521A438A6090F824104906AD
:103B300011D501684A68036C22F480121A434A6066
:103B4000016CB1F5801F06D101684A68436C22F40C
:103B5000C0021A434A6090F82410090606D501688D
:103B60004A68806C22F4002202434A607047F8B52C
:103B700000260446C0F88060FDF774FE0546206804
:103B800000686FF07E47000708D52B4600224FF4EF
:103B900000112046009700F007F960B9206800681E
:103BA00040070AD52B4600224FF48001204600979B
:103BB00000F0FAF808B10320F8BD2020A067E06704
:103BC000266684F874600020F8BD00002DE9F041FD
:103BD0000446016880682269E6691043626900252D
:103BE00032431043694B0A68694E324002430A600F
:103BF00020684168E26821F4405111434160216826
:103C0000A069994201D0226A10438A6822F4306286
:103C100002438A605F4927685F488F420DD1D0F820
:103C2000880010F0030006D0012838D0022834D0D4
:103C3000032821D135E001211FE058498F420BD1E3
:103C4000D0F8880010F00C0025D0042827D00828D0
:103C500023D00C2810D124E09F420DD1D0F8880049
:103C600010F4406017D0B0F5806F18D0B0F5006F39
:103C700013D0B0F5406F14D01021494A00264FF4FC
:103C800000409F422FD171B102290FD004290FD0DB
:103C9000082973D10FE00021EFE70221EDE70421AD
:103CA000EBE70821E9E7FEF7D1F803E0104602E070
:103CB000FEF7F0F8F0B3626802EB420181425DD892
:103CC000B0EB023F5AD8010E030250081818714198
:103CD0000023FCF747FB334AA0F5407191424DD8D1
:103CE0002168C8604BE0E3694FF6EF77834228D143
:103CF000092943D2DFE801F005080B420D42424298
:103D00001000FEF7A3F806E0FEF7B2F803E0104655
:103D100002E0FEF7BFF868B14100606801EB5001B6
:103D2000B1FBF0F0A0F11001B94227D84FF6F071C5
:103D3000014000E023E0C0F3420001432068C1607D
:103D40001DE009291AD2DFE801F005080B190D1949
:103D500019191000FEF77AF806E0FEF789F803E07B
:103D6000104602E0FEF796F848B1616800EB51009A
:103D7000B0FBF1F0A0F11001B94205D9012566664A
:103D80002846A666BDE8F08180B2A9E70080004021
:103D9000F369FFEF0038014000100240004400408A
:103DA0000024F400FFFC0F002DE9F0479A46174667
:103DB0000E4604464FF000094FF02008089D4AE0E7
:103DC000681C48D0FDF74EFDA0EB0A00A8422AD897
:103DD0004DB32068016849073DD5C069C04300055F
:103DE00039D421684FF400600862206850E8001F51
:103DF00021F4D07140E80012002AF6D12068083082
:103E000050E8001F21F0010140E80012002AF5D11E
:103E1000C4F87880C4F87C80C4F8808084F87490FA
:103E20000320BDE8F087216851E8000F20F4D0702E
:103E300041E80002002AF6D12068083050E8001F4F
:103E400021F0010140E80012002AF5D1C4F8788081
:103E5000C4F87C80E2E72068C06936EA000004D03C
:103E60000020B842ACD00020DBE70120F9E7FEE7F4
:103E700003B401984100009850EAC12018BF042003
:103E80004A0D18BF40F0010040F2FF72B2EB515FE3
:103E900008BF40F00200012808BF052002B07047AB
:103EA0000907090E002804DB00F1E02080F8001467
:103EB000704700F00F0000F1E02080F8141D7047FB
:103EC00030380A2801D201207047002070470000D6
:103ED0002DED068B8AB000215948FEF7A1FF594C01
:103EE0004FF08045A06868639FED578AF3EE0E8A15
:103EF000F2EE0E9AB1EE049A4FF0FF369FED53AA00
:103F00003146606A00F0CCF90028F9D1334600222E
:103F100008A9206A00F032F9002877D10898A0F1AA
:103F20008040B0F1727F71D800F08CFF089802F0E9
:103F3000C9F841EC100B46A153EC102B6846FCF776
:103F400089FA3F481E23172269464C30FFF76CF868
:103F500000F098FF9DED080AD4ED030AB4EE600A64
:103F6000F1EE10FA06D0D4ED040AB4EE600AF1EED8
:103F700010FA01D1012000E00020607020B1632020
:103F8000A0623120A06036E010EE100AA0F180405F
:103F9000B0F5200F02D8F0EE480A15E010EE100A36
:103FA00031490844B0F5C00F02D8F0EE680A0BE0C2
:103FB00010EE100A2D490844B0F5000F02D8F0EEBB
:103FC000690A01E0F0EE490A30EE0A0ABCEEC00AC6
:103FD00084ED0A0A2078002802D09FED250A05E02A
:103FE00080EE8A1AB8EE400A21EE000ABCEEC00A42
:103FF00084ED020A03D14FF0010002E006E04FF029
:1040000000002070A06AE862A06868634FF01701A2
:104010006846FCF741FB0120FDF70CFB00F012FFA6
:104020009DED080A30EE0A0ABCEEC00A10EE100A36
:104030006060643000F066F800F024FF60E7000084
:104040001801002004000020000044420000C84283
:1040500044697374616E6365205441534B3A202563
:10406000302E31660D0A0000000040BF0000E0BEA7
:1040700000000000FDF704FCFFF738FAFFF730F806
:10408000FFF776F8FFF72EF9FFF7DEF81748FEF78F
:10409000D3FA00F045F80121154A084600F02EF940
:1040A000144C134A04216062183A0A2000F098F870
:1040B0000F4A2062843A00210F4800F097F90C4A19
:1040C0006061603A00210D4800F090F9084AA06153
:1040D0003C3A00210A4800F089F9E0614FF0FF31D5
:1040E000606A00F0DDF800F02DF8FEE7CC0000205B
:1040F0003862000804000020C9340008314D00086F
:10410000D13E000810B5EFF3058111B16FF0050441
:1041100003E0002408B100F099FF204610BD000024
:10412000EFF3058010B16FF0050070470448016897
:1041300011B14FF0FF30704701210160002070473E
:104140009C00002010B5EFF3058010B16FF0050062
:1041500010BD08480168012902D04FF0FF3010BDA2
:10416000054A002182F8141D0221016001F01EF8A9
:10417000002010BD9C0000200BE000E0F8B51D46BB
:104180006FF003026FF002064FF00004EFF30583B7
:10419000A3B1F0B1E9B1E5B9002200926A4601F09D
:1041A000E3FB012817D10098B0B10C494FF08050C3
:1041B0000860BFF34F8FBFF36F8F0DE048B141B17F
:1041C0002A4601F035FB012806D025B16FF0010425
:1041D00002E0144600E034462046F8BD04ED00E05D
:1041E000F8B514464FF00005EFF3058212BB08B393
:1041F00001B3A4B1D4E9023263B1502A1AD32269BF
:10420000C2B1676900FB01F6B74213D3009501F014
:1042100039F907E072B9226962B9626952B90022BC
:1042200001F00FF9050005D00CB1216800E0002174
:1042300000F0AAFE2846F8BDF8B51D466FF003024F
:104240006FF002064FF00004EFF30583ABB100B34B
:10425000F9B1F5B90022134600926A4601F03AFA24
:10426000012818D10098B8B10C494FF0805008606F
:10427000BFF34F8FBFF36F8F0EE050B149B10023F2
:104280002A4601F077F9012806D025B16FF0010424
:1042900002E0144600E034462046F8BD04ED00E09C
:1042A000F8B50D460024211F4E1C002804D000BF85
:1042B000EFF30582A2B10DB10C461BE000216A4666
:1042C000009101F051FB012813D1009890B10A49E7
:1042D0004FF080500860BFF34F8FBFF36F8F09E03E
:1042E000294601F08FFB012804D015B16FF00104BD
:1042F00000E034462046F8BD04ED00E0F8B5144671
:1043000003460E464FF00005EFF3058098BB93B3CC
:104310009E423DD84CB1A0680028E06803D05028E8
:1043200036D3012002E008B132E00020012B05D095
:1043300010B31846A26801F064F820E040B10320F1
:104340000090002211460120A36801F09BF804E0D0
:1043500003220021012001F074F8050018D086B175
:1043600000231A46194601F005F9012809D028460C
:1043700000F01EFE00250BE0184601F025F80500B0
:1043800006D00CB1216800E00021284600F0FCFDB9
:104390002846F8BD38B50024E51E00280BD000BF24
:1043A000EFF30581A9B100210091694601F0F1F90F
:1043B000012815D102E06FF0030412E0009880B1EB
:1043C00009494FF080500860BFF34F8FBFF36F8FE4
:1043D00007E000231A46194601F0CCF8012800D066
:1043E0002C46204638BD000004ED00E02DE9FF41D9
:1043F0004FEA01034FF00005EFF30581039549BB38
:1044000040B38027182100244AB3166806B1344609
:1044100096691EB13146761E382E02D21679F607FD
:1044200003D0002004B0BDE8F081566906B1B7089A
:10443000D2F808C0BCF1000F0DD0D5685C2D18D3A0
:1044400012693AB136B18DE806103A46214601F0BC
:10445000FFFB03900DE0D6685EB912694AB903AA62
:10446000CDE90012BAB2214601F0C2FB012800D00A
:1044700003950398D6E700002DE9F041134C0F4651
:104480000546E6682068001D00F080FC681C07D126
:1044900037B12168BDE8F0410D48091D00F0C6BCE8
:1044A00020683544B5424560216805D2A06BBDE85F
:1044B000F041091D00F0A2BC606B091D00F09EFCDC
:1044C000A06A854200D2A562BDE8F0814C000020C0
:1044D000440700202DE9F041054600F0B3FC2D4CC7
:1044E000A068401CA06020682B4F10B1606930B3F9
:1044F0002BE02560A068012827D1002606EB860066
:1045000007EB800000F06CFC761C382EF6D32348B5
:1045100000F066FC2148143000F062FC1F4828308F
:1045200000F05EFC1D483C3000F05AFC1B48503047
:1045300000F056FC194860631430A06305E0206861
:10454000E96AC06A884200D82560606A401C6062DF
:104550006864E86A2169884200D9206100EB800024
:1045600007EB8000291D00F061FC00F08BFC606906
:1045700000280CD02068E96AC06A884207D208493E
:104580004FF080500860BFF34F8FBFF36F8FBDE8CF
:10459000F08100004C00002094020020F40600206E
:1045A00004ED00E038B500F04DFC104C2068C8B9AF
:1045B0000F4800F015FC0E48143000F011FC0C48B8
:1045C000E060143020610A4B0020F03B009003F1C2
:1045D000500210210A2000F055FF206010B105A103
:1045E00000F0D2FCBDE8384000F04CBC8800002050
:1045F00048080020546D72510000000030B4026C75
:104600000B46002A0BD0C1681144C1608468A142E6
:1046100001D30168C16030BC1846FBF7CEBF30BC87
:1046200070472DE9F041856B174604460026026C61
:1046300082B1C7B1E068FBF7C0FFE168206C091ADE
:10464000E1602268914202D2A168081AE060022F5C
:1046500016D017E02068A8B9A06801F09DFB0646B7
:104660000020A0600EE06068FBF7A7FF216C606887
:1046700008446060A168884204D32068606001E05B
:1046800005B16D1E6D1CA5633046BDE8F08110B507
:10469000044690F8590058B101280CD002280FD0D8
:1046A000502080F31188BFF34F8FBFF36F8FFEE769
:1046B000206B00F0FBFB2046BDE8104000F0F6BB8D
:1046C00010BD00000F4840F6B831420705D0C01DAC
:1046D0000C4A20F00700821A891A0B4A0023014471
:1046E000C2E900030839183A21F0070111604B6054
:1046F0000B600B1AC0E9001393604FF00040536049
:1047000050617047280F0020B8000020144E154C4F
:10471000A6F29C474FF08058DFF84C9012E000BFA3
:1047200000F090FBF068C568281D00F02FFBA06822
:10473000401EA0606068401E606000F0A3FB284639
:10474000FFF7A5FF60680028EAD138680128F9D989
:10475000C9F80080BFF34F8FBFF36F8FF2E70000FF
:10476000300700204C00002004ED00E070B51D462D
:10477000049C51B1C4F80020C4E90F010121204676
:1047800000F0B4FE84F84C5070BD2460F4E70000E3
:104790002DE9F05F8846DDE90B94154683469100CC
:1047A0009A460A9EA522206BFBF74CFF6FF003018F
:1047B000206B01EB8501084420F00707780707D03C
:1047C000502080F31188BFF34F8FBFF36F8FFEE748
:1047D0000025B8F1000F0FD05FF00000221818F884
:1047E000001082F8341018F8001011B1401C102885
:1047F000F4D384F8435001E084F83450382E00D3C9
:104800003726E662C4E91365201D00F0F4FA04F1CE
:10481000180000F0F0FA2461C6F138006462A0616B
:10482000656584F8585052465946384600F06AFA91
:104830002060B9F1000F01D0C9F8004000F000B8C5
:1048400030BCBDE8C09F000030B5114900E0114602
:104850000A688242FBD34B685C18844203D14068EB
:1048600018444860084643681C18944209D1084C13
:10487000183C2468A24209D052681A4442600A686F
:1048800012680260814200D0086030BD0460F9E720
:10489000B800002070B5002441600B4D00619142CA
:1048A00006D8D11A8269914206D2011D286907E013
:1048B0009A4203D2994201D3012403E0011DE86822
:1048C00000F09CFA204670BD8800002010B5044618
:1048D00000F0B8FAA06B28B15FF0000400F0D2FA43
:1048E000204610BD0124F9E730B589B03C4D6EE09B
:1048F0000498002806DADDE90601059A9047049835
:10490000002864DB069C606910B1201D00F03EFAAF
:1049100003A800F0D7F8024604980A2857D2DFE827
:1049200000F00505052D334A05052D3394F82800C0
:1049300040F0010084F828000599A069059B014416
:104940002046FFF7A7FF68B3216A2046884794F8FE
:10495000280040073BD5002000900598A16900235E
:1049600042181946204601F05DFBD8B9502080F36B
:104970001188BFF34F8FBFF36F8FFEE714F8280F36
:1049800020F00100207022E094F8280040F001009F
:1049900084F828000598A06128B1811813462046A4
:1049A000FFF778FF13E0502080F31188BFF34F8F9B
:1049B000BFF36F8FFEE794F82800810703D42046E9
:1049C00000F074FA03E020F0010084F828000022CF
:1049D00004A9286800F02CFF002889D109B030BD57
:1049E000880000202DE9FC410F46054600F022FC1E
:1049F00001A800F067F80446019818B101F080FAA8
:104A0000BDE8FC81254EAFB130690068D0B3002706
:104A1000291B3A46306800F0F7FA01F071FA0028D5
:104A2000EED11F494FF080500860BFF34F8FBFF3A6
:104A30006F8FE5E7A542EBD801F062FAF0682746F0
:104A4000C068C468201D00F0A1F994F8280041074F
:104A500019D5A0692B4641193A462046FFF71AFF9F
:104A6000A8B100200346014600902A46204601F0E6
:104A7000D9FA60B9502080F31188BFF34F8FBFF38C
:104A80006F8FFEE707E020F0010084F82800216A1C
:104A900020468847B4E70127BAE7000088000020D5
:104AA00004ED00E00648416B096829B1416BC96813
:104AB000C9684968816270474FF0FF31FAE700002A
:104AC0004C00002070B5054601F0FCF8064E044687
:104AD000B068844203D200F009F8012000E0002011
:104AE00028602046B46070BD88000020F8B5194DDC
:104AF00020E0C068C4680668201D00F047F9216AFC
:104B00002046884794F82800400713D5A069304410
:104B1000B04206D924616060211DE86800F06EF99A
:104B200008E000200346014600903246204601F08E
:104B300079FA38B1E86801680029DAD12969C5E94C
:104B40000310F8BD502080F31188BFF34F8FBFF3DF
:104B50006F8FFEE78800002008484068401C4FF037
:104B6000500080F3118804D0BFF34F8FBFF36F8FD5
:104B7000FEE7BFF34F8FBFF36F8FFEE7C00000204B
:104B8000074CE068016841B1C0680021D0F800001E
:104B9000FFF728FFFFF7A8FEF3E701210020F7E762
:104BA000880000202DE9F041044600F04BF994F90B
:104BB000455004F1240609E0606A48B1304601F02E
:104BC00067F908B100F070FA6D1E6DB2002DF3DCCC
:104BD0004FF0FF3684F8456000F054F900F032F9E8
:104BE00094F9445004F1100709E0206948B13846AF
:104BF00001F04EF908B100F057FA6D1E6DB2002DAC
:104C0000F3DC84F84460BDE8F04100F03BB90000FB
:104C10002DE9F0410546002700F00CFB324E3068CC
:104C200008B9FFF74FFD706905424ED1C5B308358D
:104C300068070ED005F00700C0F1080005446807BA
:104C400007D0502080F31188BFF34F8FBFF36F8FD1
:104C5000FEE72DB37068854237D8234818300146E7
:104C60000C6801E020460C466168A94202D2216826
:104C70000029F7D131688C4227D00768216801608C
:104C800060680837411B10290FD96019420708D006
:104C9000502080F31188BFF34F8FBFF36F8FFEE773
:104CA00013E041606560FFF7CFFD61687068401AEE
:104CB0007060B268904200D2B06070690143002019
:104CC000C4E90001F068401CF06001F019F97807B0
:104CD00007D0502080F31188BFF34F8FBFF36F8F41
:104CE000FEE73846BDE8F081A000002004490868CE
:104CF00018B10868026D521C026508687047000010
:104D00004C00002010B5031F4FF080741C601B1F67
:104D100021F001011960191F044B0B6014390A605E
:104D2000091F6FF0020244380A6010BD594B000899
:104D3000144CDFF8548000274FF400654FF0904684
:104D4000012229463046FCF788FD2068476220682A
:104D5000416A0A29FCD3002229463046FCF77DFD32
:104D600000210848FDF728FE0120FCF763FC00F055
:104D700069F8D8F804006430FFF7C4F900F082F84D
:104D8000DEE70000CC00002004000020D0E9013262
:104D900001699A60D0E901235A604A68824201D1D0
:104DA00082684A60002202610868401E0860086844
:104DB00070470000034B036003F15C000860802033
:104DC0001060704770080020044B036003F15C0022
:104DD00008604FF48070106070470000CC0A00201B
:104DE00000F108014FF0FF32C0E90112C16001611A
:104DF00000210160704700210161704730B50B68E8
:104E00005A1C02D000F1080202E0026904E02246C6
:104E1000546825689D42FAD953684B6099608A604E
:104E2000516008610168491C016030BD42684A60F8
:104E300093688B6093685960916008610168491CB0
:104E400001607047502080F31188BFF34F8FBFF38C
:104E50006F8F0A494868401C486001280CD10848F7
:104E6000006810F0FF0F07D0502080F31188BFF3C7
:104E70004F8FBFF36F8FFEE770470000C000002028
:104E800004ED00E00849486828B1401E486001D19F
:104E900080F311887047502080F31188BFF34F8F43
:104EA000BFF36F8FFEE70000C000002070B5002840
:104EB0002AD0164DA0F1080460686969084207D13C
:104EC000502080F31188BFF34F8FBFF36F8FFEE741
:104ED00022683AB1502080F31188BFF34F8FBFF39F
:104EE0006F8FFEE78843606000F0A4F9606869682E
:104EF000084468602046FFF7A7FC2869401C286129
:104F0000BDE8704000F0FCBF70BD0000A0000020B4
:104F10004FF0E02000210161816105494FF47A7270
:104F20000968B1FBF2F1491E416107210161704737
:104F30004800002010B5FBF7E1F9114910280ED305
:104F400000F1E02090F8F0030A78904207D2502058
:104F500080F31188BFF34F8FBFF36F8FFEE70948CF
:104F60000068896800F4E060884207D9502080F327
:104F70001188BFF34F8FBFF36F8FFEE710BD0000A6
:104F8000C00000200CED00E010B5084B002200BF6F
:104F900053F832401CB1521C082AF9D310BD43F813
:104FA000321003EBC201486010BD00005402002023
:104FB00010B504000AD000F013F894F84600002859
:104FC0000CD12046BDE81040FFF770BF502080F3A1
:104FD0001188BFF34F8FBFF36F8FFEE710BD000046
:104FE000084A002102EBC1035B68834206D100201E
:104FF00042F8310002EBC10148607047491C0829A2
:10500000F0D370475402002070B515460E46044692
:10501000FFF718FF94F944100020491C01D184F8CF
:10502000440094F94510491C01D184F84500FFF76C
:1050300029FFA06B28B92A46314604F1240000F06C
:1050400051F82046BDE87040FFF7ACBD10B5020036
:1050500014D00F48006B38B1502080F31188BFF393
:105060004F8FBFF36F8FFEE700F0E4F8002110468A
:10507000FFF702FA00F044FF002807D105494FF07E
:1050800080500860BFF34F8FBFF36F8F10BD0000DB
:105090004C00002004ED00E002490A6A0260C96881
:1050A000416070474C00002001490120C8617047F1
:1050B0004C00002010B50C4650B109490968183160
:1050C000FFF79CFE2046BDE810400121FFF7D4B950
:1050D000502080F31188BFF34F8FBFF36F8FFEE72F
:1050E0004C00002070B514460D4668B10A490968A5
:1050F0001831FFF79BFE0CB14FF0FF3521462846D3
:10510000BDE87040FFF7B8B9502080F31188BFF3B5
:105110004F8FBFF36F8FFEE74C00002070B5040087
:105120003ED0226DA2B1E06C884200D30146E06A15
:10513000884235D0012A33D11A4D2A6894420FD1C2
:10514000502080F31188BFF34F8FBFF36F8FFEE7BE
:10515000502080F31188BFF34F8FBFF36F8FFEE7AE
:10516000E162A269002A02DBC1F13801A1610E4EA1
:1051700000EB8000616906EB8000814210D1201DA8
:10518000FFF704FEE06A2969884200D9286100EB34
:10519000800006EB8000211DBDE87040FFF746BE91
:1051A00070BD00004C0000209402002030B587B094
:1051B0000024039405AA04A903A80494FFF7FAFDA8
:1051C000DDE903010094CDE90110002315A1174882
:1051D000059A00F03DFD164D0028E8621FD000F052
:1051E000F1FE012809D0401C19D1502080F311880C
:1051F000BFF34F8FBFF36F8FFEE7502080F311880E
:10520000BFF34F8FBFF36F8F4FF0FF30A8620120C5
:105210006861EC6007B0BDE8304000F045B807B009
:1052200030BD000049444C45000000000D47000817
:105230004C0000200248016B491C016370470000CC
:105240004C000020164810B5016B11B10121C1615D
:1052500010BD0021C1610169124A01E0B9B1491EC6
:1052600001EB810352F82330002BF7D001EB8103CF
:1052700002EB830202F1080453685B685360A342A7
:1052800001D15B685360DA680260016110BD502093
:1052900080F31188BFF34F8FBFF36F8FFEE70000DD
:1052A0004C000020940200201CB537480168374AA2
:1052B000914207D1502080F31188BFF34F8FBFF385
:1052C0006F8FFEE700683149491E884207D15020A0
:1052D00080F31188BFF34F8FBFF36F8FFEE72C4928
:1052E00008780190FF20087008788DF800009DF87C
:1052F00000009DF8002000F0F000904207D0502000
:1053000080F31188BFF34F8FBFF36F8FFEE79DF8D7
:105310000000204C00F0500020700720A06005E045
:105320009DF8002052008DF80020401E9DF80020BE
:105330001206F5D4A060032807D0502080F311880E
:10534000BFF34F8FBFF36F8FFEE74FF44070A06045
:10535000019808700C482030016841F47001016028
:10536000016841F070410160FFF7D2FD00206060EC
:10537000FAF78CFF0848016841F040410160FAF7F4
:1053800071FF00201CBD000000ED00E071C20F4164
:1053900000E400E0C000002034EF00E010B5502031
:1053A00080F31188BFF34F8FBFF36F8F00F090FC35
:1053B00018B104494FF080500860002080F3118834
:1053C00010BD000004ED00E010B50C4648B1844269
:1053D0000FD9502080F31188BFF34F8FBFF36F8F29
:1053E000FEE7502080F31188BFF34F8FBFF36F8F1C
:1053F000FEE70222002100F024F8002800D0846398
:1054000010BD38B50C4648B184420FD9502080F306
:105410001188BFF34F8FBFF36F8FFEE7502080F3EB
:105420001188BFF34F8FBFF36F8FFEE70221134642
:1054300000220091114600F025F8002800D0846376
:1054400038BDF8B517460E46050013D005FB06F02B
:105450005030FFF7DDFB04000AD0002084F846003E
:1054600004F150023B46314628460094FFF77EF98E
:105470002046F8BD502080F31188BFF34F8FBFF353
:105480006F8FFEE738B5049D18B153B1CAB181B131
:1054900020E0502080F31188BFF34F8FBFF36F8F50
:1054A000FEE7502080F31188BFF34F8FBFF36F8F5B
:1054B000FEE7502080F31188BFF34F8FBFF36F8F4B
:1054C000FEE739B1502080F31188BFF34F8FBFF34F
:1054D0006F8FFEE750241C46012384F846302B468C
:1054E0000094FFF743F9204638BD000070B50D4623
:1054F000040025D0FFF7A6FCD4E90F20216802FBA9
:105500000011A1600021A163216861600A46D4E90D
:105510000F01401E00FB0121E16021464FF0FF30EA
:1055200001F8440F487004F110008DB1FFF758FCEA
:1055300004F12400FFF754FCFFF7A4FC012070BD28
:10554000502080F31188BFF34F8FBFF36F8FFEE7BA
:1055500021690029F0D000F09BFC0028ECD0044920
:105560004FF080500860BFF34F8FBFF36F8FE3E7BA
:1055700004ED00E02DE9FF4782B01D468A464FF05A
:105580000008040003D0BAF1000F08D011E0502049
:1055900080F31188BFF34F8FBFF36F8FFEE7206C4E
:1055A00038B1502080F31188BFF34F8FBFF36F8F56
:1055B000FEE7022D0AD1E06B012807D0502080F3CE
:1055C0001188BFF34F8FBFF36F8FFEE700F06CFBC6
:1055D0003F4F4FF000094FF0805648B9049838B15A
:1055E000502080F31188BFF34F8FBFF36F8FFEE71A
:1055F000FFF728FCA06BE16B884207D3022D05D092
:105600000498D0B1B8F1000F1AD01EE02A465146D6
:105610002046FFF706F8616A19B104F1240000F092
:1056200037FC20B13E60BFF34F8FBFF36F8FFFF7A2
:1056300029FC012006B0BDE8F087FFF723FC22E03B
:105640006846FFF729FD4FF00108FFF71BFCFFF745
:10565000F1FDFFF7F7FB94F94400401C01D184F8F9
:10566000449094F94500401C01D184F84590FFF71F
:1056700009FC04A9684600F081FA30B12046FFF722
:1056800091FA00F03DFC0020D4E7FFF7DBFBA06BB4
:10569000E16B884213D1FFF7F5FB04F11000049988
:1056A000FFF708FD2046FFF77DFA00F029FC0028EF
:1056B0009ED13E60BFF34F8FBFF36F8F98E7FFF728
:1056C000E1FB2046FFF76EFA00F01AFC90E70000BD
:1056D00004ED00E02DE9F0471F469046894604009E
:1056E00003D0B9F1000F08D011E0502080F31188E9
:1056F000BFF34F8FBFF36F8FFEE7206C38B15020A0
:1057000080F31188BFF34F8FBFF36F8FFEE7022F37
:105710000AD1E06B012807D0502080F31188BFF335
:105720004F8FBFF36F8FFEE7FFF704FC5020EFF3BE
:10573000118680F31188BFF34F8FBFF36F8FA06B7B
:10574000E16B884206D3022F04D0002086F3118833
:10575000BDE8F08794F94550A06B3A46494620468B
:10576000FEF75FFF681C04D06D1C84F845500120D3
:10577000ECE7606A0028FAD004F1240000F088FB0E
:105780000028F4D0B8F1000FF1D00121C8F80010C2
:10579000EDE770B50E46040009D0206C78B15020BA
:1057A00080F31188BFF34F8FBFF36F8FFEE7502058
:1057B00080F31188BFF34F8FBFF36F8FFEE7206830
:1057C00048B9A06838B1502080F31188BFF34F8FDB
:1057D000BFF36F8FFEE7FFF7ADFB5020EFF31185AE
:1057E00080F31188BFF34F8FBFF36F8FA16BE06B16
:1057F000884218D994F94500491CA163411C04D082
:10580000401C84F8450001200EE0606A0028FAD0B0
:1058100004F1240000F03CFB0028F4D0002EF2D06C
:1058200001203060EFE7002085F3118870BD000093
:105830002DE9F747002683B08A46040003D0BAF169
:10584000000F08D011E0502080F31188BFF34F8F74
:10585000BFF36F8FFEE7206C38B1502080F31188C2
:10586000BFF34F8FBFF36F8FFEE700F01DFADFF835
:10587000F4804FF000094FF0805748B9059838B1CF
:10588000502080F31188BFF34F8FBFF36F8FFEE777
:10589000FFF7D8FAA56BC5B151462046FEF7AEFE1C
:1058A0006D1EA563206950B104F1100000F0F0FAFC
:1058B00028B1C8F80070BFF34F8FBFF36F8FFFF7A9
:1058C000E1FA012006B0BDE8F087059808B11EB1E5
:1058D00006E0FFF7D7FA27E06846FFF7DDFB012671
:1058E000FFF7D0FAFFF7A6FCFFF7ACFA94F94400F3
:1058F000401C01D184F8449094F94500401C01D12A
:1059000084F84590FFF7BEFA05A9684600F036F91D
:10591000002820460AD0FFF745F900F0F1FA2046AA
:10592000FEF7D4FF0028B3D00020CBE7FEF7CEFF70
:1059300090B104F124000599FFF7BCFB2046FFF766
:1059400031F900F0DDFA0028A2D1C8F80070BFF3E9
:105950004F8FBFF36F8F9BE72046FFF723F900F0CF
:10596000CFFA95E704ED00E02DE9F047904689462F
:10597000040003D0B9F1000F08D011E0502080F3EB
:105980001188BFF34F8FBFF36F8FFEE7206C38B1E4
:10599000502080F31188BFF34F8FBFF36F8FFEE766
:1059A000FFF7C8FA5020EFF3118680F31188BFF398
:1059B0004F8FBFF36F8FA76BF7B194F944504946EF
:1059C0002046FEF71BFE7F1EA763681C04D06D1CDB
:1059D00084F84450012010E020690028FAD004F136
:1059E000100000F055FA0028F4D0B8F1000FF1D003
:1059F0000121C8F80010EDE7002086F31188BDE80A
:105A0000F08700002DE9F343002683B004003546FB
:105A100009D0206C78B1502080F31188BFF34F8FEC
:105A2000BFF36F8FFEE7502080F31188BFF34F8FD5
:105A3000BFF36F8FFEE700F037F9DFF83C814FF0DE
:105A400000094FF0805748B9049838B1502080F3CE
:105A50001188BFF34F8FBFF36F8FFEE7FFF7F2F9A7
:105A6000A06BC8B1401EA063206810B9FFF73EF9D3
:105A7000A060206950B104F1100000F009FA28B1CB
:105A8000C8F80070BFF34F8FBFF36F8FFFF7FAF9BD
:105A9000012005B0BDE8F083049808B166B10FE0BD
:105AA0003DB1502080F31188BFF34F8FBFF36F8F4C
:105AB000FEE7FFF7E7F95DE06846FFF7EDFA01263C
:105AC000FFF7E0F9FFF7B6FBFFF7BCF994F94400E4
:105AD000401C01D184F8449094F94500401C01D148
